:020000040800F2
:10000000300C0020910200084D2200084522000813
:10001000492200088904000805300008000000009B
:100020000000000000000000000000005522000851
:100030008D04000800000000512200085922000829
:10004000AB020008AB020008AB020008AB020008DC
:10005000AB020008AB020008AB020008AB020008CC
:10006000AB020008AB020008AB020008AB020008BC
:10007000AB020008AB020008AB020008AB020008AC
:10008000AB020008AB020008AB020008AB0200089C
:10009000AB020008AB020008AB020008AB0200088C
:1000A000AB020008AB020008AB020008AB0200087C
:1000B000AB020008AB020008AB020008AB0200086C
:1000C000AB020008AB020008AB020008AB0200085C
:1000D000AB020008AB020008AB020008AB0200084C
:1000E000AB020008AB020008AB020008AB0200083C
:1000F000AB020008AB020008AB020008AB0200082C
:10010000AB020008AB020008AB020008AB0200081B
:10011000AB020008AB020008AB020008AB0200080B
:10012000AB020008AB020008AB020008AB020008FB
:10013000AB0200080000000000000000AB02000855
:10014000AB020008AB020008AB020008AB020008DB
:10015000AB020008AB020008AB020008AB020008CB
:10016000AB020008AB020008AB020008AB020008BB
:10017000AB020008AB020008AB0200080000000060
:1001800000000000AB0200080000000000000000BA
:10019000AB0200080000000000000000AB020008F5
:1001A000000000000000000000000000AB0200089A
:1001B000AB020008AB020008AB020008AB0200086B
:1001C000AB02000800F002F800F052F814A696E81E
:1001D000000CB244B344DA4501D100F049F8BAE862
:1001E0000F000FA696E83000A5EB040504EB060708
:1001F000AAEB0704A7F101074FEA15154FEA3414DB
:10020000A4F10104AC4201D300F032F813F0010F65
:1002100018BFFB1A43F0010300F001F8DBE71847B1
:10022000D4300000F4300000103A24BF78C878C100
:10023000FAD8520724BF30C830C144BF04680C60EC
:1002400070470000704700000023002400250026AE
:10025000103A28BF78C1FBD8520728BF30C148BF29
:100260000B6070471FB503F02BF81FBD10B510BD14
:1002700000F0D0F81146FFF7F5FF02F0C5FE00F0E0
:10028000EEF803B4FFF7F2FF03BC00F0F5F800004E
:100290000948804709480047FEE7FEE7FEE7FEE71A
:1002A000FEE7FEE7FEE7FEE7FEE7FEE70448054956
:1002B000054A064B7047000009230008C5010008E5
:1002C00030060020300C00203008002030080020CC
:1002D00053EA020C00F069802DE9F04B4FF0000664
:1002E000002B1FBFB3FA83F503FA05F424FA05F6D1
:1002F0005E4012BF1643B2FA82F502FA05F4C5F168
:1003000020051EBF22FA05FC44EA0C04203556EAFB
:10031000044C4FEA144418BF641C4FF000084FF01F
:100320000009904271EB030C39D3002919BFB1FACF
:1003300081F701FA07F6B0FA80F700FA07F6C7F17D
:1003400020071EBF20FA07FC46EA0C062037B6FB42
:10035000F4FCA7EB0507103F07F01F0BCBF12006BD
:100360002CFA06F60CFA0BFB44BFB3460026202FEE
:10037000A4BF5E464FF0000B5BEA060C08BF4FF0CF
:10038000010B19EB0B0948EB0608ABFB027C06FBE3
:1003900002CC0BFB03CCC01B71EB0C01C1E70B467D
:1003A000024641464846BDE8F08B13B5084318BFE6
:1003B0004FF0FF300146AFF30080BDE81C407047AE
:1003C0004FF0000200B5134694469646203922BFEE
:1003D000A0E80C50A0E80C50B1F12001BFF4F7AF39
:1003E000090728BFA0E80C5048BF0CC05DF804EB1B
:1003F000890028BF40F8042B08BF704748BF20F889
:10040000022B11F0804F18BF00F8012B7047704786
:1004100070477047754600F02BF8AE4605006946F8
:10042000534620F00700854618B020B5FFF73EFF81
:10043000BDE820404FF000064FF000074FF00008E5
:100440004FF0000BAC46ACE8C009ACE8C009ACE822
:10045000C009ACE8C00921F007018D46704710B50E
:100460000446AFF300802046BDE81040FFF709BF07
:10047000004870471000002001491820ABBEFEE77D
:100480002600020070470000FEE7000070470000F1
:1004900072B600BFFEE70000F0B581B00022009206
:1004A00090F83C20012A03D1022001B0F0BD00BF2A
:1004B0000F6801231FFA87FC80F83C304FEA4C0399
:1004C00007EB470213FA87F31024092F88BFA3F123
:1004D0001E0288BF0C2403684FF0070E1E590EFA47
:1004E00002F5AE431E518E681D5906FA02F22A43E8
:1004F0001A514968062907D801EB81014A1F19469C
:1005000051F8345F0FE000BF0C2901EB810105D8E1
:10051000A1F12302194651F8305F04E0A1F1410234
:10052000194651F82C5F1F26964025EA06060E60F4
:100530000CFA02FE42F2043C0A68C4F2010CACF56B
:10054000417642EA0E02B3420A6005D0002180F8EB
:100550003C10002001B0F0BD1221112FC1F20001AA
:1005600018BF8F423AD1DCF800208F4222F480027B
:10057000CCF80020DCF8002042F40002CCF8002087
:10058000E4D140F20801C2F2000109684DF683622D
:10059000C4F21B32A1FB0212910C01EB8101490054
:1005A000009100990029D1D000990139009100995A
:1005B0000029CBD000990139009100990029C5D0BC
:1005C00000990139009100990029BFD000990139A3
:1005D000009100990029E7D1B8E700BF122FB5D1EB
:1005E000DCF8001021F40001CCF80010DCF8001059
:1005F00041F48001CCF80010A8E700000068C06C4E
:1006000070470000002804BF0120704710B5016C3E
:1006100000293DD0016CC90645D4016C41F202129B
:100620009143023142F204320164C4F201021168C2
:1006300021F440311160136890E812102343D0F880
:1006400010E013604A68012422F480724A604A680C
:10065000C0F6007442EA0E224A604A6822F04072F4
:100660004A604A6842EA0C024A608A6822F40062E0
:100670008A60C2688B681A438A60826A8B68A24269
:1006800023F070638B608B6810D123F0405216E02A
:10069000044600F065F820460021616484F83C10AF
:1006A000016CC906B9D5012153E000BF1A438A6025
:1006B0008A6822F040528A60C26A8B681A438A6054
:1006C0008A6822F002028A608A68037E90F82040DD
:1006D00042EA43028A604A6884B142F400624A6096
:1006E0004A684EF2000322F460424A60426ACFF642
:1006F000FF734C6803EB4232224301E022F40062B4
:100700004A60CA6A40F2000C22F47002CA62C369ED
:100710004269CFF6F07CCC6A0CEB03532343CB62E7
:100720008B6823F400738B6090F830308C6844EA57
:1007300043238B608B6823F480638B608B6843EA70
:1007400082228A6000214164026C012363F301026A
:100750000264002280F83C20BDE810400846704743
:1007600080B586B042F200210068C4F20101002287
:1007700088420592CDE903220292019202D006B08E
:1007800080BD00BF43F630000092C4F2020043690E
:1007900043F480634361436903F480630093009BE7
:1007A0000092036843F020030360006800F020001B
:1007B000009000984FF4856001900320CDE902027B
:1007C00001F5724001A900F045F906B080BD0000B6
:1007D00070B5044600680D468268520544BF8068C3
:1007E0005FEAC05038D400F00BFA21680A6892071B
:1007F00049D40646681C3CD0DDB90868800721D57D
:10080000086880073FD4086880071BD50868800700
:1008100039D40868800715D50868800733D408687C
:1008200080070FD508688007E7D52CE008688007A7
:1008300029D400F0E5F9801B2168A842F6D90868A0
:100840008007F3D4206C40F004002064002084F87A
:100850003C00032070BD00BF206C40F020002064ED
:10086000002084F83C00012070BD00BF08688007AC
:1008700009D40868800706D4086880075CBF086848
:100880005FEA8070F2D56FF012000860206C40F4CF
:1008900000702064886810F0405F01D0002070BDB7
:1008A000207E0028FAD1C86A10F4700F02D0886840
:1008B0004005F3D4206C20F480702064206CC004C8
:1008C000ECD4206C40F001002064002070BD0000DA
:1008D00010B581B00021009190F83C10012903D19E
:1008E000022001B010BD00BF0468012180F83C1057
:1008F000214651F8083FDB0729D10B684DF683628A
:1009000043F001030B6040F20803C2F200031B68CE
:10091000C4F21B32A3FB02239A0C02EB42020092A8
:10092000009AA2B1009A013A0092009A7AB1009A14
:10093000013A0092009A52B1009A013A0092009A4C
:100940002AB1009A013A0092009A002AEAD10A6874
:10095000036CD2070CD143F01001016400F1440193
:1009600001200A6810430860002001B010BD00BFDC
:1009700040F2017223EA020202F5807202646268A8
:10098000520504D5026C012363F30D320264026C3C
:100990004FF0000E0023D20444BF426C22F0060345
:1009A00042F2043C436480F83CE06FF02200C4F261
:1009B000010C2060DCF80000C0060DD0ACF54170E1
:1009C00084422BD14FF60450CFF6FF705CF8000044
:1009D00010F0405F22D125E042F20000C4F2010095
:1009E000844217D042F20020C4F2010084420DD0AC
:1009F00042F20010C4F2010084420FD1DCF8000082
:100A0000C00607D0ACF58270844207D1DCF8000044
:100A1000C00603D4086810F0405F03D0002001B086
:100A200010BD00BF4FF080409BE70000B0B504460A
:100A300000F0E6F8054640F20000C2F2000000783F
:100A4000611C18BF044400BF00F0DAF8401BA0424C
:100A5000FAD3B0BD2DE9F04F83B000F1200200F1D0
:100A60003E4741F60005009207F1FF77C4F2020508
:100A700007224FEAB726A84208BF062200254FF0FA
:100A800000084FF00009062E38BF4FEAB722019246
:100A90000AE000BF09F1010908F10208B9F1100FDD
:100AA00005F1040500F0A2800F68012202FA09FE98
:100AB00017EA0E0AEED0D1F804C003220CF00307A7
:100AC0007E1E02FA08F4012E6FEA040B12D8846825
:100AD000CE6804EA0B0406FA08F6344384604468DE
:100AE00024EA0E06CCF3001404FA09F42643466007
:100AF00004E000BF032F01D103271EE0C6688C6805
:100B000006EA0B0604FA08F42643022FC66014D145
:100B10006FF00302009E02EA590756F807C005F07D
:100B20001C040F220B69A2402CEA0202A3401A43C4
:100B3000F251D1F804C00CF00307026807FA08F379
:100B400002EA0B021A431CF4403F0260A2D00022CA
:100B500043F644030292C4F202031A6843F60044C7
:100B600042F480421A601A68C4F2010402F480421E
:100B70000292029A29F003024FF6084C2244CFF663
:100B8000FF7C52F80C3005F00C070F26BE40B34333
:100B9000019E06FA07F73B4342F80C30A2684B6807
:100BA00042EA0A0743F60C4CDE0258BF22EA0A0763
:100BB000A760C4F2010CDCF800209E0242EA0A079A
:100BC00058BF22EA0A07CCF8007062689E0342EA26
:100BD0000A0758BF22EA0A0767602268DB0342EA75
:100BE0000A0758BF22EA0A07276053E703B0BDE8A7
:100BF000F08F0000002A08BF0904816170470000DF
:100C000040F22C60C2F200000068704740F2000021
:100C100040F22C61C2F20000C2F2000100780A68C2
:100C2000104408607047000080B543F60040C4F2ED
:100C30000200016841F400710160016841F48061C3
:100C40000160016841F480710160032000F074F8D4
:100C5000002000F005F800F027F8002080BD00001B
:100C600070B540F20006C2F2000640F20801327888
:100C7000C2F200014FF47A730968B3FBF2F2044642
:100C8000B1FBF2F1084600F04BFF0F2C4FF00105CD
:100C900008D838B94FF0FF3021460022002500F077
:100CA0001FF87460284670BD82B0002043F64001F2
:100CB0000190C4F202014A6842F480424A604A68E4
:100CC00002F480420192019A0090086840F080503E
:100CD0000860086800F080500090009802B07047EB
:100CE00010B54EF60C5CCEF2000CDCF80030C3F30D
:100CF000022E8EF00704042C28BF0424BEF1030347
:100D00004FF0FF3E0EFA04F438BF0023A143994090
:100D10000EFA03F39A43114300F00F0200F160430F
:100D20000901043A03F564436244002848BF02F114
:100D30000C03197010BD00004EF60C51CEF20001EC
:100D40000A684FF6FF031A4060F30A2242F08060FF
:100D500040F0FD700860704701220168C0F8D82497
:100D6000002280F8CC24886940F000608861486DDA
:100D700040F0805040F0030200204A6570470000B8
:100D8000002804BF01207047F0B581B00446056813
:100D900090F8950428B9002084F89404204600F0C7
:100DA0002DF90320B5F1A04F84F8950404BF00206D
:100DB000A071206801F06AFF94E80F00267C00967D
:100DC00001F0BEFB002840F000812068002101F006
:100DD00065FF002840F0F98094F804E0BEF1000FB0
:100DE00000F0EC800EF0030CBEF1040F4FF0000297
:100DF00040D30EF0FC03A4F190000321012500BFB5
:100E0000CE1E80F8A460A0F8BE608E1E80F8C86078
:100E1000A0F8E2604E1E80F8EC60A0F8066180F851
:100E20001011A0F82A110E1D013180F8A55080F88C
:100E3000A820C0E92B22C0F8B42080F8C95080F85F
:100E4000CC20C0E93422C0F8D82080F8ED5080F8DA
:100E5000F020C0E93D22C0F8FC2080F8115180F854
:100E60001421C0E94622C0F8202190309942314631
:100E7000C6D1F21EBCF1000F31D004F1140002EB18
:100E8000C20100EB8105012300F821200021BCF103
:100E9000010F6B706A832971C5E9021129611ED0A7
:100EA000551C05EBC50600EB8607BCF1020F7B70F5
:100EB00000F826507D833971C7E9021139610ED0DF
:100EC000911C01EBC10200EB8203012500F8221006
:100ED00000205D7059831871C3E902001861BEF1EA
:100EE000000F6BD0BEF1040F4FF0000236D30EF0AE
:100EF000FC000321234600BFCF1E83F854728F1ECF
:100F000083F878724F1E83F8C0120D1D013183F8EB
:100F1000552283F85822C3E99722C3F8642283F844
:100F2000792283F87C22C3E9A022C3F8882283F8BF
:100F30009D2283F89C7283F8A022C3E9A922C3F8FA
:100F4000AC2283F8C12283F8C422C3E9B222C3F8D9
:100F5000D022903381422946CED1EA1EBCF1000F47
:100F60002CD004F5157002EBC20300EB83070021BF
:100F7000BCF1010F797000F823203971C7E9021123
:100F800039611BD0531C03EBC30700EB8706BCF190
:100F9000020F717000F827303171C6E9021131611A
:100FA0000CD0911C01EBC10200EB820300275F70A3
:100FB00000F822101F71C3E902771F6194E80F0047
:100FC000277C009701F008FC30B1022084F89504DA
:100FD000012001B0F0BD00BF00206074012084F842
:100FE0009504207B012802D12046FFF7B5FE20683A
:100FF00001F0E2FB002001B0F0BD0000F0B59DB0B3
:10100000044600201C90CDE91A00CDE9180001A883
:1010100004305821FFF7D4F92068B0F1A04F01D077
:101020001DB0F0BD4FF48070019001A800F03EF8B3
:10103000002818BFFFF72CFA002743F63006009768
:10104000C4F202063068002440F0010030603068CD
:10105000C4F2020400F00100009000984FF4E85040
:1010600018900220CDE9190703201B900A2018AD23
:101070001C9020462946FFF7EDFC4FF40070CDE9A7
:101080001807204629461A97FFF7E4FC706840F0DD
:10109000800070600097706940F4804070617069F2
:1010A00000F48040009000981DB0F0BD2DE9F043A1
:1010B00081B00446006843F68C06C107C4F20206FC
:1010C00004D14FF0000981070CD415E03168A26B00
:1010D00021F0C06111433160B2FA82F14FEA511937
:1010E000810709D53168E26B21F0C05111433160AD
:1010F000002A08BF4FF00109410705D44FF000084E
:10110000010712D420E000BF3168226B21F44011A6
:1011100011433160B2FA82F14FEA5118B2F5801FE3
:1011200008BF4FF0010901070ED53168626B21F449
:1011300040011143B2F5800F316008BF4FF0010943
:10114000002A08BF4FF0010881065AD50020009000
:1011500056F84C0C47F2000740F0805046F84C0C13
:1011600056F84C0CC4F2000700F080500090009834
:10117000386840F480703860FFF742FD054600BFD4
:101180003868C00506D4FFF73BFD401B0228F7D99D
:1011900090E100BF56F81C0C10F4407017D0216C81
:1011A00001F44071884212D056F81C0C40F64061A0
:1011B000C4F24721012220F440700A6000220A6034
:1011C00046F81C0C56F81C0CC00740F07B812068C8
:1011D000216C56F8842C4FF6FF4701F4407322F43B
:1011E000F812C0F6FF770F40B3F5407F08BF3A43CF
:1011F00046F8842C56F81C2C6FF31F31114346F827
:101200001C1CC10610D4010619D441061FD4C10507
:1012100025D4810530D4410536D4B9F1010F18BF6A
:10122000B0F5006F3CD062E094F8580040F64061A1
:10123000C4F24721C1F8A00320680106E5D5B168D2
:10124000E26C21F440011143B1604106DFD5B16881
:10125000A26C21F080611143B160C105D9D5B1689C
:10126000626D21F000611143B160B2F1006F08BFFF
:101270004FF001088105CED5B168626C21F0805134
:101280001143B1604105C8D5B268216D22F000520A
:101290000A43B0F5006FB26018BFB1F1005F23D10F
:1012A00040F26809C4F247290020C9F80000FFF79E
:1012B000A7FC054656F88C0C000105D5FFF7A0FCED
:1012C000401B0228F6D9F5E02068C10702D0A16BC7
:1012D00000296FD0810702D5E16B00296AD0410750
:1012E00000F17D807FE000BFB9F1010FD8D0B8F1E7
:1012F000000F4FF0000000F0DE806827C4F247279F
:10130000B860FFF77DFC054656F88C0C800005D5CB
:10131000FFF776FC401B0228F6D9CBE02068410796
:1013200001D5216B19B101071AD5616BC1B956F806
:10133000041CD4E9062301F44031656A114341EAF3
:10134000831141EA0561D4F82CC046F8041C3168C9
:101350006FF0FF0221F4F85102EB0C2211433160CF
:10136000C00516D5606DB0F1006F12D156F8040CAF
:10137000226AD4E9061300F07060D2034FF6FF75BD
:10138000AA430843A2F5803240EA8310104346F88E
:10139000040C0120B860FFF733FC044656F88C0CAF
:1013A000800000F18B80FFF72BFC001B0328F5D396
:1013B00080E000BF56F8081C56F8082CD4E9013527
:1013C00001F4403102F0706219436769114341EA48
:1013D000851141EA077146F8081C410703D5216BC6
:1013E000B1F5801F05D001071FD5616BB1F5800FE6
:1013F0001BD156F8081C56F8082CD4E9013701F423
:10140000403102F0E04219432569114341EA871156
:1014100041EA0561D4F828C046F8081C3168ACF1EF
:10142000010221F01F011143316041051FD5216DDB
:10143000B1F1005F1BD1271D56F808CC56F8082CD7
:10144000A8CFFF034FF6FF7127EA01014FF0C067F5
:1014500002F0E04207EA4C2707F100771A433A43CB
:10146000A1F5803142EA8512114346F8081C0005B7
:1014700010D5271D8FCF40EA8110D1034FF6FF72A0
:101480009143A1F5803140EA0360084340EA0770C8
:1014900046F8080C0120C9F80000FFF7B1FB05462B
:1014A00056F88C0C00013FF522AFFFF7A9FB401B5B
:1014B0000228F5D9032001B0BDE8F083002001B077
:1014C000BDE8F083FFF79CFB054641F2883700BF7B
:1014D00056F81C0C80073FF57AAEFFF791FB401BD6
:1014E000B8424FF00300F3D9E5E70000002804BF3D
:1014F000012070472DE9F04143F60808C4F20208C4
:101500000446D8F8F8030D4600F00F00814207D9D1
:1015100088F8F853D8F8F80300F00F00A84277D104
:101520002068810717D5410705D5D8F8001041F488
:10153000E051C8F80010010705D5D8F8001041F4B3
:101540006041C8F80010D8F80010A26821F0F0013E
:101550001143C8F80010C00740D1D8F8F80300F0D4
:101560000F00854207D288F8F853D8F8F80300F046
:101570000F00A8424CD12068410707D5D8F80010C9
:10158000E26821F4E0511143C8F80010000708D5C3
:10159000D8F80000216920F4604040EAC100C8F892
:1015A000000000F07DF8D8F8001043F2DA22C1F311
:1015B0000311C0F60002515C40F2080220FA01F16A
:1015C00040F20400C2F200000068C2F200021160A2
:1015D000FFF746FB0020BDE8F08100BF6068811E78
:1015E000022907D258F8081C89015CBF0120BDE818
:1015F000F08111E0012807D158F8081C89035CBF6D
:101600000120BDE8F08107E058F8081C890703D4E1
:101610000120BDE8F08100BFD8F8001021F00301DF
:101620000843C8F80000FFF7EBFA064641F2883796
:10163000D8F80000616800F00C00B0EB810F8CD08E
:10164000FFF7DEFA801BB842F2D90320BDE8F08133
:1016500040F2080043F60801C2F20000C4F20201A1
:101660000068096843F2EA22C1F38221C0F6000251
:10167000515CC8407047000040F2080043F6080182
:10168000C2F20000C4F202010068096843F2EA22D3
:10169000C1F34231C0F60002515CC84070470000FF
:1016A00010B543F60404C4F202046068C0F381017B
:1016B00042F20040C0F2F400DFE801F042020818F4
:1016C00041F20020C0F27A0010BD00BF216801F095
:1016D0003F02216823684902C3F3881116D4A1FB95
:1016E00000010023FEF7F4FD17E000BF216801F0C0
:1016F0003F02216823684902C3F3881114D4A1FB77
:1017000000010023FEF7E4FD15E000BF41F20020D8
:10171000C0F27A004843B0FBF2F021680222C1F324
:10172000014102EB410109E041F20020C0F27A00E0
:101730004843B0FBF2F02168C1F30271B0FBF1F055
:1017400010BD0000002804BF012070472DE9F041C2
:1017500082B00446007843F60006C007C4F20206D1
:101760000CD0B06800F00C00042840F0898030688C
:10177000800303D56068002800F05081207880073E
:1017800023D5B06810F00C0F11D0B06800F00C0039
:10179000082802D17068400209D5B06800F00C003A
:1017A0000C2840F09F807068400200F19B803068F8
:1017B000800703D5E068012840F030813068216956
:1017C00020F0F80040EAC10030602078000713D410
:1017D000207840072AD4A569002D00F01A81B0684E
:1017E00000F00C00082840F0AB80012D40F0E880AC
:1017F000012002B0BDE8F0816069002840F20000DD
:10180000C4F2472000F088800121C0F8801EFFF755
:10181000F7F90546706F8007DAD4FFF7F1F9401B3E
:101820000228F7D9032002B0BDE8F081306C5FEAEE
:10183000C0080AD400200190306C40F08050306421
:10184000306C00F080500190019847F20007C4F21C
:1018500000073868C00537D4386840F480703860B5
:10186000FFF7CEF9054600BF3868C0052CD4FFF756
:10187000C7F9401B0228F7D9032002B0BDE8F08168
:10188000B06800F00C00082803D1706840023FF5F2
:101890006EAFB06800F00C000C2803D170684002F5
:1018A0003FF565AF61683068B1F5803F07D0B1F5AD
:1018B000A02F40F0CB8040F480203060306840F4AE
:1018C00080303060CBE000BFA168306F012905D0C7
:1018D000052957D140F004003067306F40F0010017
:1018E000306759E0E068002800F09C800020C4F2D6
:1018F000472001210160FFF783F905463068800722
:101900003FF55CAFFFF77CF9401B02284FF0030066
:10191000F4D902B0BDE8F0810021C0F8801EFFF7C5
:101920006FF90546706F80077FF552AFFFF768F9D2
:10193000401B0228F6D9032002B0BDE8F08100BFA9
:101940000027C4F2472700203866FFF759F9022D17
:1019500005460BD13068800140F19280FFF750F9C5
:10196000401B02284FF00300F4D9D2E73068800111
:101970004FD5FFF745F9401B02284FF00300F5D97A
:10198000C7E700BF20F001003067306F002920F06A
:101990000400306700F09880FFF732F9054641F205
:1019A000883700BF306F800700F1A080FFF728F96B
:1019B000401BB842F6D9032002B0BDE8F08100BF59
:1019C0007068E16900F480028A4227D1216A00F040
:1019D0003F028A4222D147F6C071626A0140B1EBF0
:1019E000821F1BD1A16A4FF6FF73C903994300F40C
:1019F0004032A1F580318A4210D1E16A00F0706274
:101A0000B2EB016F0AD1216B00F0E040B0EB017F37
:101A100004D1002002B0BDE8F08100BF012002B077
:101A2000BDE8F0810020C4F2472000210160FFF7EB
:101A3000E7F80546306880077FF5C7AEFFF7E0F8A6
:101A4000401B02284FF00300F4D962E720F48030F5
:101A500030603068002920F48020306050D0FFF7DB
:101A6000CFF80546306880033FF588AEFFF7C8F829
:101A7000401B6428F6D9032002B0BDE8F08100BF06
:101A800004F11C052FCD246B084340EA8210D903D2
:101A90004FF6FF729143A1F5803140EA056008439B
:101AA00040EA0470706001203866FFF7A9F8044628
:101AB00030688001ADD4FFF7A3F8001B02284FF077
:101AC0000300F5D925E700BFFFF79AF8054641F274
:101AD000883700BF306F800708D5FFF791F8401BAB
:101AE000B8424FF00300F5D913E700BFB8F1000F7B
:101AF0003FF571AE306C20F0805030646BE600BF73
:101B0000FFF77EF8054600BF306880037FF536AEEC
:101B1000FFF776F8401B64284FF00300F4D9F8E68D
:101B2000411E0020B0EB116F1CBF012070474EF228
:101B30001002CEF2000251604EF62351CEF20001A7
:101B4000F0230B700721906011607047002804BFDC
:101B50000120704710B5044690F83D0028B90020D8
:101B600084F83C00204600F01FF8022084F83D0075
:101B70002068211D00F0D2FB012084F8460084F883
:101B80003E0084F83F0084F8400084F8410084F867
:101B9000420084F8430084F8440084F8450084F847
:101BA0003D00002010BD0000006841F60001C4F2B5
:101BB0000001884218BF704781B00020009043F6B2
:101BC0004000C4F20200016841F040010160006879
:101BD00000F040000090009801B0704790F83C2061
:101BE000012A4FF002026CD080B580F83D20D0F879
:101BF00000C04FF67772DCF8083023EA0202CCF816
:101C000008200B684F2B29DC1F2B45DD202B46D0ED
:101C1000302B44D0402B40F0AF80D1F804E0C968AD
:101C2000DCF82030DCF8202022F00102CCF8202063
:101C3000DCF8182022F0F00242EA011123F00A0237
:101C400042EA0E02CCF81810CCF82020DCF808107C
:101C500041F0470121F0300128E000BF6F2B33DD58
:101C6000B3F5005F74D0B3F5805F21D0702B40F0E6
:101C70008380D1E901E3C968DCF8082043EA0E0358
:101C800022F47F4243EA01211143CCF80810DCF82A
:101C9000081041F0770109E00BB1102B6CD1DCF892
:101CA000081021F07001194341F00701CCF8081029
:101CB0000022012180F83D10002180F83C10BDE891
:101CC00080401046704700BF502B21D0602B53D16D
:101CD000D1F804E0C968DCF82030DCF8202022F0DC
:101CE0001002CCF82020DCF8182022F4704242EADE
:101CF000013123F0A00242EA0E12CCF81810CCF801
:101D00002020DCF8081041F0670121F01001CDE738
:101D1000D1F804E0C968DCF82030DCF8202022F09B
:101D20000102CCF82020DCF8182022F0F00242EA70
:101D3000011123F00A0242EA0E02CCF81810CCF886
:101D40002020DCF8081041F0570121F02001ADE718
:101D5000D1E901E3C968DCF8082043EA0E0322F464
:101D60007F4243EA01211143CCF80810DCF8081047
:101D700041F480419AE700BF01229AE780B586B01E
:101D800041F600010068C4F2000100228842059279
:101D9000CDE903220292019202D006B080BD00BFBD
:101DA00043F630000092C4F20200036843F00203DD
:101DB0000360006800F00200009000984FF480403B
:101DC00001900220CDE902020920059001F5F630CC
:101DD00001A90492FEF73EFE06B080BD90F83C30AB
:101DE000012B04BF022070474FEAB202032A00F21F
:101DF000FF802DE9F043DFE802F003B13F7F00BF31
:101E0000036840F200461C6A1A6A24F0020422F0B9
:101E100001021A621A46D3F804C052F818EF8F680C
:101E200043F48065C4F20106B54244EA070405D1D3
:101E3000CF6824F00C0427F004073C430F68B54238
:101E400006D1D1E905582CF440762E4346EA080C19
:101E50002EF073063743C3F804C09F614F680969C9
:101E60005F631C629F6947F008079F619F6927F0C5
:101E700004079F61B1E000BF036840F200481C6A9C
:101E80001A6A24F4007422F480721A621A46D3F893
:101E900004C052F81CEF8F6843F48065C4F2010857
:101EA000454544EA072408D1CF6840F2FF463F0287
:101EB00024F4406427EA06063443D1F800904545EF
:101EC00006D1D1E905562CF440572E4347EA061CAB
:101ED0002EF0730747EA0907C3F804C0DF614F68B3
:101EE0000969DF631C62DF6947F00807DF61DF69AA
:101EF00027F00407DF6170E0036840F20045D3F883
:101F000020C01A6A43F4806722F480521A621A468B
:101F10005C6852F81C8FD1F800E08E68C4F20105AD
:101F2000AF4204D14D6924F4804444EA85142CF472
:101F3000005747EA063728F4E64646EA0E265C6074
:101F4000DE614E6809691E641F62DF6947F400673D
:101F5000DF61DF6927F48067DF613DE0036840F2FD
:101F600000481C6A1A6A24F0200422F010021A6247
:101F70001A46D3F804C052F818EF8F6843F480650E
:101F8000C4F20108454544EA071407D1CF686FF051
:101F9000400624F0C00406EA07163443D1F8009046
:101FA000454506D1D1E905562CF440672E4347EA52
:101FB000860C2EF4E64747EA0927C3F804C09F6160
:101FC0004F6809699F631C629F6947F400679F61BE
:101FD0009F6927F480679F610902136819431160A4
:101FE0000021BDE8F043002280F83C2008467047FD
:101FF0000121002280F83C2008467047002804BFD9
:102000000120704710B5044690F83D0028B9002023
:1020100084F83C00204600F01FF8022084F83D00C0
:102020002068211D00F07AF9012084F8460084F828
:102030003E0084F83F0084F8400084F8410084F8B2
:10204000420084F8430084F8440084F8450084F892
:102050003D00002010BD000070470000C1B1042900
:1020600008D0082914BF41224022825C012A05D0F1
:1020700016E000BF3F22825C012A11D1022208290A
:1020800010D0042914BF80F8412080F83F200BE0D5
:1020900090F83E20012A03D1022280F83E2003E07E
:1020A0000120704780F84020006801F01F010122E4
:1020B000036A02FA01F123EA01020262026A114391
:1020C00041F2FF72C4F20002904201620CDC40F265
:1020D000FF71C4F20001884214DCB0F1804F37D0A8
:1020E00040F2004116E000BF40F2FF31C4F20101AE
:1020F000884215DC41F60001C4F20001884227D075
:10210000002115E040F60001C4F2000188421FD012
:1021100040F60041C4F20001884219D01FE000BF20
:1021200044F20001C4F20101884211D040F20041A2
:10213000C4F20101884212D1416C40F2004340F4E4
:102140008062C4F2010341F400419A42416406D125
:10215000816801F00701062904BF0020704701686B
:1021600041F001010160002070470000002804BF19
:102170000120704710B5044690F8410028B90020AE
:1021800084F84000204600F021F8242084F8410023
:102190002068C16821F40051C160204600F05CF95C
:1021A0002068016921F490410161416921F02A010F
:1021B0004161C16841F40051C16000202021606488
:1021C00084F8411084F84210606310BD80B586B079
:1021D00044F600010068C4F2000100228842059222
:1021E000CDE903220292019202D006B080BD00BF69
:1021F00043F630000092C4F20200036943F48023E6
:102200000361036903F480230093009B0092036839
:1022100043F008030360006800F008000090009895
:102220004FF4407001900220CDE902020320049097
:102230000720059001F5E23001A9FEF70BFC06B07E
:1022400080BD0000FEE70000FEE70000FEE70000A2
:102250007047000070470000FEF7D8BC70B594B01E
:1022600007AC20463421FEF7ABF8002543F64000CA
:102270000695CDE90455CDE902550195C4F2020059
:102280000168022641F080510160006800F0805032
:102290000190019847F200000195C4F20000016826
:1022A00041F440410160006800F440400190019811
:1022B000012007904FF4A02008904FF480000E906A
:1022C00004200F90A820CDE910060720CDE91206C2
:1022D00020460D96FFF736FA10B172B6FEE700BF42
:1022E0000F20CDE902064FF4A05005904FF4805026
:1022F000069002A805210495FFF7F8F810B172B610
:10230000FEE700BF14B070BD4EF68850CEF200005C
:10231000016841F47001016070470000B0B540F6FB
:10232000FF3E0568C4F2000E40F2004C7045C4F256
:10233000010C25DCB0F1804F2FD040F20043C4F2F5
:102340000003984229D040F60003C4F200039842EB
:1023500023D041F6FF73C4F20003984228DC704595
:102360003ADCB0F1804F5BD040F20043C4F200038E
:10237000984255D040F60003C4F200034EE000BF7F
:1023800040F60043C4F20003984206D0604504D0F2
:102390000023C4F201039842DBD14B6825F07002A0
:1023A00043EA020541F6FF73C4F200039842D6DD0A
:1023B00043F6FF73C4F2010398421FDC42F20003AC
:1023C000C4F2000398422BD00023C4F201039842C8
:1023D00026D0604524D028E040F60043C4F2000334
:1023E00098421DD041F60003C4F20003984217D072
:1023F00041F60043C4F2000310E000BF44F20003C2
:10240000C4F2010398420BD044F60003C4F2010366
:10241000984205D044F20043C4F20103984204D12B
:10242000CB6825F4407243EA02050A688C684B6960
:10243000C46240F480648262644504BF0969016338
:10244000026825F0800142F0040219430260012273
:1024500042610160B0BD0000B0B50446006804F1FF
:1024600008030ECB0569194325F440552A43026140
:102470006269E3691143C268194349F20C639A43E4
:102480001143C1604169A26921F4407141F20043E6
:10249000114340F48062C4F201039A42416103D1C6
:1024A000FFF7EAF802E000BFFFF7D2F8E1694FF664
:1024B0009C7563681922C0F6FF75B1F5004FA0FB4B
:1024C00002011FD15A00DB0FFDF702FF48F21F5136
:1024D000C5F2EB11A0FB01235A0905F1805302FB61
:1024E0000300322303EBC000A0FB01014FF4F8709E
:1024F00000EA111000EB0210C1F3421108442168F8
:102500008860B0BD9A009B0FFDF7E2FE48F21F51B4
:10251000C5F2EB11A0FB01235A0902FB050032238F
:1025200003EB0010A0FB0101F02000EA511000EBCA
:102530000210C1F34311084421688860B0BD000057
:1025400082B002F47F42B2F5807F40F09980826BC6
:102550004FF6BF7322F480328263C268CFF6BD7338
:102560001A40C260029BC268DBB222F44012012B07
:10257000C26003D1C26842F48012C260002200929D
:10258000009A01320092009AB2F1706F00F2F0806E
:102590000269002A21D4009A01320092009AB2F115
:1025A000706F00F2E5800269002A16D4009A0132A9
:1025B0000092009AB2F1706F00F2DA800269002A8C
:1025C0000BD4009A01320092009AB2F1706F00F2BF
:1025D000CF800269B2F1FF3FD2DC0A220092009A5A
:1025E000AAB100BF009A013A0092009A7AB1009A0B
:1025F000013A0092009A52B1009A013A0092009A70
:102600002AB1009A013A0092009A002AEAD102699E
:1026100042F001020261009A01320092009AB2F186
:10262000706F00F2A5800269D20720D0009A0132B3
:102630000092009AB2F1706F00F29A800269D2079C
:1026400015D0009A01320092009AB2F1706F00F238
:102650008F800269D2070AD0009A01320092009A54
:10266000B2F1706F00F284800269D207D3D14FF0CB
:10267000000C01F47F01B1F5803F40F099808FE0BC
:10268000C26842F04002C26000220192019A013207
:102690000192019AB2F1706F72D80269002A1ED4B9
:1026A000019A01320192019AB2F1706F68D8026901
:1026B000002A14D4019A01320192019AB2F1706F8A
:1026C0005ED80269002A0AD4019A01320192019A65
:1026D000B2F1706F54D80269B2F1FF3FD6DC0A2222
:1026E0000192019AAAB100BF019A013A0192019A9E
:1026F0007AB1019A013A0192019A52B1019A013AD2
:102700000192019A2AB1019A013A0192019A002A92
:10271000EAD1026942F001020261019A013201929A
:10272000019AB2F1706F2BD80269D2071DD0019ABD
:1027300001320192019AB2F1706F21D80269D20779
:1027400013D0019A01320192019AB2F1706F17D839
:102750000269D20709D0019A01320192019AB2F1BD
:10276000706F0DD80269D207D7D14FF0000C09E085
:102770004FF0030C01F47F01B1F5803F18D10FE059
:102780004FF0030C826B13F47F4F14BF22F480329E
:1027900042F48032826301F47F01B1F5803F07D1BA
:1027A000816841F006018160816841F0200181600B
:1027B000604602B0704700000146D0F8000E20F0DD
:1027C0000300C1F8000ED1F8040840F00202002016
:1027D000C1F80428704700002DE9F04F86B0C3F31C
:1027E000074516468E460021C0F80411C0F80811AE
:1027F000C0F80C11C0F81011C0F81411C0F818116D
:10280000C0F81C11C0F82011C0F82411C0F828111C
:10281000C0F82C11C0F83011C0F83411C0F83811CC
:10282000C0F83C1125B100F138014FF400120FE05F
:10283000D0F80418802241F00201C0F80418816B1E
:1028400021F400118163016841F0400101600146FB
:102850000B681A430A6006F47F420021B2F5807FBC
:10286000C0F8001E08D1D0F80028B1EB1E6F09D1C6
:10287000C0F800280AE000BFD0F8001841F00301BA
:1028800002E000BF42F00101C0F8001800210491ED
:102890000499013104910499B1F1706F52D8016922
:1028A00000291ED40499013104910499B1F1706F8B
:1028B00048D80169002914D404990131049104997C
:1028C000B1F1706F3ED8016900290AD40499013131
:1028D00004910499B1F1706F34D80169B1F1FF3FEF
:1028E000D6DC002104914FF4846101610499013127
:1028F00004910499B1F1706F24D8016989061DD53E
:102900000499013104910499B1F1706F1AD80169E9
:10291000890613D50499013104910499B1F1706FBE
:1029200010D80169890609D50499013104910499E7
:10293000B1F1706F06D801698906D7D44FF0000A4B
:1029400002E000BF4FF0010A002105910599013115
:1029500005910599B1F1706F4ED8016900291ED417
:102960000599013105910599B1F1706F44D801695C
:10297000002914D40599013105910599B1F1706FC1
:102980003AD8016900290AD40599013105910599C0
:10299000B1F1706F30D80169B1F1FF3FD6DC002191
:1029A0000591102101610599013105910599B1F158
:1029B000706F21D80169C90620D5059901310591AB
:1029C0000599B1F1706F17D80169C90616D5059937
:1029D000013105910599B1F1706F0DD80169C906F2
:1029E0000CD50599013105910599B1F1706F03D8A6
:1029F0000169C906D7D401E04FF0010A5FFA8EF9E8
:102A00004FF00008B9F1000FC0F81088C0F8148822
:102A1000C0F81C8800F00D81CDF80CA0CDE9015E56
:102A2000D0F800194FF0006404EA11114FF67F3519
:102A3000B9F1010BC0F80019C0F81089C0F80859A5
:102A400074D0A9F1020103290BF0030A04D2012179
:102A5000BAF1000F40D169E000962BF0030700F5B2
:102A6000186600234FF0904C4FF67F324FF0000E67
:102A700056F8601C0EF1040E0CEAE17146F8601C79
:102A800046F8503C46F8582C56F8401C77450CEA5E
:102A9000E17146F8401C46F8303C46F8382C56F8B0
:102AA000201C0CEAE17146F8201C46F8103C46F860
:102AB000182C31680CEAE17131603361B26006F1C3
:102AC0008006D5D1009E0EF101014FF67F354FF003
:102AD0000064BAF1000F29D000F510634F01B4462D
:102AE000DE594FF0904202EAE67603EB4111DE51E7
:102AF000664600274FF67F33BAF1010F0F618B60F6
:102B000014D00E6ABAF1020F02EAE67266460A6251
:102B10000F638B620AD00A6C4FF0904303EAE272B3
:102B20000A6400220A654FF67F328A64D0F8001BDF
:102B3000BBF1000F04EA1111C0F8001B4FF00001B7
:102B4000C0F8101BC0F8085BDDE9015EDDF80CA0E1
:102B50006FD0A9F1020103290BF0030C04D201216B
:102B6000BCF1000F3BD164E0A94600962BF00305B1
:102B700000F5386600234FF090474FF67F32002172
:102B800056F8604C043107EAE47446F8604C46F8A5
:102B9000503C46F8582C56F8404C8D4207EAE474F5
:102BA00046F8404C46F8303C46F8382C56F8204C55
:102BB00007EAE47446F8204C46F8103C46F8182C16
:102BC000346807EAE47434603361B26006F1800669
:102BD000D6D1009E01314D46BCF1000F29D000F541
:102BE00030634F013446DE594FF0904202EAE676F8
:102BF00003EB4111DE51264600274FF67F33BCF12F
:102C0000010F0F618B6014D00E6ABCF1020F02EA53
:102C1000E67226460A620F638B620AD00A6C4FF096
:102C2000904303EAE2720A6400220A654FF67F329B
:102C30008A64D0F810181EF47F0F21F48071C0F858
:102C400010186FF08041C0F81880416103D181698C
:102C500041F010018161816943F60002C8F23C0233
:102C6000114316F47F0F816103D0816941F008019F
:102C70008161012D05D1816941F0804141F004015C
:102C80008161504606B0BDE8F08F000001468068C3
:102C900020F0010200208A6070470000B0B50446B1
:102CA000C068002920F0C040E06000F09980012950
:102CB00040F0B080E0680A2540F00050E0600A2053
:102CC000FDF7B4FE54F8140FC00740F09C800A20B2
:102CD000FDF7ACFE2068C00740F09E800A20FDF79B
:102CE000A5FE2068C00740F0A5800A20FDF79EFEE3
:102CF0002068C00740F0AC800A20FDF797FE2068EE
:102D0000C00740F0B3800A20FDF790FE2068C0079E
:102D100040F0BA800A20FDF789FE2068C00740F025
:102D2000C1800A20FDF782FE2068C00740F0C880FD
:102D30000A20FDF77BFE2068C00740F0CF800A2004
:102D4000FDF774FE2068C00740F0D6800A20FDF72A
:102D50006DFE2068C00740F0DD800A20FDF766FEAA
:102D60002068C00740F0E4800A20FDF75FFE20687D
:102D7000C00740F0EB800A20FDF758FE2068C0072E
:102D800040F0F2800A20FDF751FE2068C00740F0B5
:102D9000F9800A20FDF74AFE2068C00740F0008154
:102DA0000A20FDF743FE2068C00740F007810A2093
:102DB000FDF73CFE2068C00740F00E810A20FDF7B9
:102DC00035FE2068C00740F016810A20FDF72EFE70
:102DD0002068C825A5F1C800B0FA80F04009B0BD50
:102DE000E0680A2540F08040E0600A20FDF71EFE02
:102DF00054F8140FC00706D00A20FDF717FE20680C
:102E0000C00711D11425A5F1C800B0FA80F040091F
:102E1000B0BD00BF0120B0BD1425A5F1C800B0FAB7
:102E200080F04009B0BD00BF0A20FDF7FFFD20681B
:102E3000C00707D11E25A5F1C800B0FA80F04009EF
:102E4000B0BD00BF0A20FDF7F1FD2068C00707D123
:102E50002825A5F1C800B0FA80F04009B0BD00BF38
:102E60000A20FDF7E3FD2068C00707D13225A5F150
:102E7000C800B0FA80F04009B0BD00BF0A20FDF7DD
:102E8000D5FD2068C00707D13C25A5F1C800B0FAE0
:102E900080F04009B0BD00BF0A20FDF7C7FD2068E3
:102EA000C00707D14625A5F1C800B0FA80F0400957
:102EB000B0BD00BF0A20FDF7B9FD2068C00707D1EB
:102EC0005025A5F1C800B0FA80F04009B0BD00BFA0
:102ED0000A20FDF7ABFD2068C00707D15A25A5F1F0
:102EE000C800B0FA80F04009B0BD00BF0A20FDF76D
:102EF0009DFD2068C00707D16425A5F1C800B0FA80
:102F000080F04009B0BD00BF0A20FDF78FFD2068AA
:102F1000C00707D16E25A5F1C800B0FA80F04009BE
:102F2000B0BD00BF0A20FDF781FD2068C00707D1B2
:102F30007825A5F1C800B0FA80F04009B0BD00BF07
:102F40000A20FDF773FD2068C00707D18225A5F18F
:102F5000C800B0FA80F04009B0BD00BF0A20FDF7FC
:102F600065FD2068C00707D18C25A5F1C800B0FA1F
:102F700080F04009B0BD00BF0A20FDF757FD206872
:102F8000C00707D19625A5F1C800B0FA80F0400926
:102F9000B0BD00BF0A20FDF749FD2068C00707D17A
:102FA000A025A5F1C800B0FA80F04009B0BD00BF6F
:102FB0000A20FDF73BFD2068C00707D1AA25A5F12F
:102FC000C800B0FA80F04009B0BD00BF0A20FDF78C
:102FD0002DFD2068C00707D1B425A5F1C800B0FABF
:102FE00080F04009B0BD00BF0A20FDF71FFD20683A
:102FF000C0077FF4EAAEBE25A5F1C800B0FA80F0A4
:103000004009B0BDFEE700008CB041F60008C4F2F4
:103010000208FDF709FEFFF721F9002743F630000B
:103020000597CDE90377CDE901770897C4F202004F
:103030000168A8F5A05541F0040101600168002273
:1030400001F004010891089908970168812441F072
:1030500020010160016801F020010891089908979A
:10306000016841F080010160016801F08001089170
:1030700008990897016841F002010160016801F0B8
:103080000201089108990897016841F00801016060
:10309000016801F00801089108990897016841F05A
:1030A00040010160016801F040010891089908970A
:1030B000016841F0010101600068812100F0010018
:1030C000089008982846FDF795FD404640210022CB
:1030D0004FF04009FDF78EFD4FF4005001AECDE9F1
:1030E0000107A8F5805031460397FDF7B3FC019422
:1030F000012428463146CDE902470497FDF7AAFC92
:1031000040463146CDE90194CDE90377FDF7A2FCB5
:103110008020CDE90107404631460397FDF79AFC30
:1031200040F270000123A8F57641C2F20000C0F61B
:10313000007304974FF48032077680F82070C0E95E
:103140000A37C46180F8307080E88600C0E90377F0
:103150004461FDF757FA18B172B600BFFEE700BF31
:103160000F2001A991C140F27000C2F2000001A934
:10317000FDF792F910B172B6FEE700BF40F2E450DD
:10318000A8F5E831C2F2000000230C274FF4E13229
:1031900080E80E00C0E90333C0E90573C361FEF7A0
:1031A000E5FF18B172B600BFFEE700BF40F2B800FD
:1031B000C2F200004FF0A0410160062101714FF4FE
:1031C0000071C1804FF48171C0F809100121C181E3
:1031D000FDF7D6FD10B172B6FEE700BF40F29C507D
:1031E0000021A8F50032C2F20000532340F2DE377E
:1031F0000B91CDE90911CDE90611CDE90411C0E922
:103200000023C0E9021701618161FEF79FFC18B13C
:1032100072B600BFFEE700BF4FF48050089040F246
:103220009C50C2F2000008A9FEF7D8FC10B172B69B
:10323000FEE700BF40F29C50C2F20000FEF7DEFE47
:1032400010B172B6FEE700BF602001904FF4FA7033
:1032500040F29C5802900020C2F2000803900590B2
:1032600001A940460022FEF7B9FD18B172B600BFB1
:10327000FEE700BF4046FEF781FD40460021FEF715
:10328000EDFE40F2700540F20C04C2F2000549F672
:10329000D9766327C2F200042846FDF719FB2846B9
:1032A0006421FDF795FA2846FDF7A8F980B2400899
:1032B0007043C00DD8F80010784320804863EBE7D6
:1032C000F1EE100A4FF6FF71C0F2C03120EA0100A2
:1032D00040F04070E1EE100A70470000000000006E
:1032E00000000102030406070809000000000102B3
:1032F0000304000018330008000000201000000044
:10330000280200082833000810000020200C0000CC
:10331000480200080000000001000000100000004A
:083320000024F400320000005B
:04000005080001C529
:00000001FF
